:020000040800F2
:100000007806002069010008130300080B030008AC
:100010000F03000805030008890300080000000022
:1000200000000000000000000000000017030008AE
:100030000903000800000000150300081903000868
:100040008301000883010008830100088301000880
:100050008301000883010008830100088301000870
:1000600000000000830100088301000883010008EC
:1000700083010008830100088301000800000000DC
:1000800083010008830100080000000083010008CC
:100090008301000883010008830100088301000830
:1000A0008301000883010008830100088301000820
:1000B00083010008000000000000000000000000B4
:1000C00083010008000000008301000800F002F82E
:1000D00000F03AF80AA090E8000C82448344AAF1A8
:1000E0000107DA4501D100F02FF8AFF2090EBAE8A6
:1000F0000F0013F0010F18BFFB1A43F0010318475C
:10010000200C0000400C0000103A24BF78C878C1D1
:10011000FAD8520724BF30C830C144BF04680C600D
:10012000704700000023002400250026103A28BF55
:1001300078C1FBD8520728BF30C148BF0B60704759
:100140001FB51FBD10B510BD00F0AAF81146FFF78E
:10015000F7FF00F04BFB00F0C8F803B4FFF7F2FF25
:1001600003BC00F013F90000094880470948004724
:10017000FEE7FEE7FEE7FEE7FEE7FEE7FEE7FEE757
:10018000FEE7FEE704480549054A064B70470000B4
:100190001D030008CD00000878000020780600202C
:1001A0007802002078020020704753EA020C00F029
:1001B00069802DE9F04B4FF00006002B1FBFB3FA0A
:1001C00083F503FA05F424FA05F65E4012BF1643E0
:1001D000B2FA82F502FA05F4C5F120051EBF22FA33
:1001E00005FC44EA0C04203556EA044C4FEA14445A
:1001F00018BF641C4FF000084FF00009904271EBEB
:10020000030C39D3002919BFB1FA81F701FA07F6B7
:10021000B0FA80F700FA07F6C7F120071EBF20FAF0
:1002200007FC46EA0C062037B6FBF4FCA7EB0507F3
:10023000103F07F01F0BCBF120060CFA0BFB2CFA3A
:1002400006F644BFB3460026202FA4BF5E464FF0FB
:10025000000B5BEA060C08BF4FF0010B19EB0B0912
:10026000ABFB027C48EB0608C01B06FB02CC0BFB79
:1002700003CC71EB0C01C1E70B46024641464846F0
:10028000BDE8F08B13B54FF000004FF00001AFF365
:100290000080BDE81C40704770477047704770474A
:1002A000754600F02BF8AE4605006946534620F02F
:1002B0000700854618B020B5FFF764FFBDE8204071
:1002C0004FF000064FF000074FF000084FF0000B12
:1002D00021F00701AC46ACE8C009ACE8C009ACE8C5
:1002E000C009ACE8C0098D46704710B50446AFF3AD
:1002F00000802046BDE81040FFF72FBF0048704740
:100300001800002000BFFEE7704700BFFEE700BFF7
:10031000FEE7704770477047704700001748006855
:1003200020F00100401C1549086000BF1348006818
:10033000C0F340000028F9D01048406820F00300C6
:100340000E49486000BF0D484068C0F38100002896
:10035000F9D10A4800680A490840084908600020A5
:10036000486041F61070C8624FF4801008634FF483
:100370001F008860C80303490860704700100240EE
:10038000FFFFF2FE08ED00E000BFFEE700BF704790
:100390000349496860F30711014A51607047000042
:1003A000001002400349496860F30A21014A516084
:1003B00070470000001002400349496860F3CD21F6
:1003C000014A51607047000000100240012807D127
:1003D0000749496D21F030013031054A516505E08A
:1003E0000349496D21F03001014A51657047000011
:1003F00000100240052827D2DFE800F0030A111898
:100400001F00134A126861F30002114B1A601CE0CE
:100410000F4A126861F310420D4B1A6015E00C4A46
:10042000126861F318620A4B1A600EE0084A126AF9
:1004300061F30002064B1A6207E0054A526A61F353
:100440000002034B5A6200E000BF00BF704700008B
:100450000010024010B50121064800F03FF80121CC
:10046000054800F03BF801210348401C00F036F835
:1004700010BD000001001C001100140010B5014661
:100480000020094B03EB1142126801F01F04012305
:10049000A3401A4001F01F040123A3409A4200D058
:1004A00000E0012010BD00000010024030B5002423
:1004B000002500E0641C1120FFF7E0FF012802D0B6
:1004C000B4F5405FF6D31120FFF7D8FF012801D023
:1004D000002500E00125284630BD000010B50129A7
:1004E0000DD10E4B03EB1042126800F01F040123E4
:1004F000A3401A43094C04EB10431A600CE0074B6D
:1005000003EB1042126800F01F040123A3409A433A
:10051000024C04EB10431A6010BD000000100240B2
:1005200030B50246002000233AB9324C646824F406
:100530008034304D6C60304819E02E4C646824F4EF
:10054000803404F580342B4D6C60012A06D12B4891
:100550002C46646824F400346C6008E02648254C7E
:10056000646824F4003404F50034224D6C60244C9B
:10057000A04204D9234CA04201D2002326E0224C01
:10058000A04204D9214CA04201D201231EE0204CFC
:10059000A04204D91F4CA04201D2022316E01D4CF8
:1005A000A04204D91C4CA04201D203230EE01B4CF4
:1005B000A04204D91A4CA04201D2042306E0184CF0
:1005C000A04203D9174CA04200D20523094C64680D
:1005D00061F39544074D6C600D09064C646865F342
:1005E0005E74044D6C602C46E46A63F31A64EC623A
:1005F00030BD00000010024000093D0000127A00EA
:1006000060823B00404B4C0080584F00105E5F0002
:1006100094357700101B7F0020BCBE00286BEE00D5
:1006200030D73D01D8E9DC011648006820F0010010
:10063000401C1449086000BF12480068C0F3400025
:100640000028F9D00F48406820F003000D494860A9
:1006500000BF0C484068C0F381000028F9D1094868
:10066000006809490840074908600020486041F6D1
:100670001070C8624FF4801008634FF41F00886048
:100680007047000000100240FFFFF2FE0349496876
:1006900060F30101014A5160704700000010024000
:1006A00002484068C0F3810070470000001002401B
:1006B0001CB5684600F032F8C020009000208DF88C
:1006C00004008DF8050002208DF8060001208DF849
:1006D000070069464FF0904000F02AF80320009090
:1006E00069460D4800F024F8012206214FF09040A1
:1006F00000F05BF8012207214FF0904000F055F820
:1007000001220021044800F050F80122114602485D
:1007100000F04BF81CBD0000000400484FF6FF71CC
:10072000016000218171017141710121C171704726
:1007300070B50A4600211488A3B233E003F0010427
:100740006CB304684E000325B540AC430460947953
:100750004D00AC4005682C430460446801258D4081
:10076000AC434460446815798D402C4344608468F0
:100770004E000325B540AC438460D4794D00AC40B5
:1007800085682C438460C4684E000325B540AC43A3
:10079000C46054794D00AC40C5682C43C4605B1004
:1007A0004C1CA1B2002BC9DC70BDF0B500230024A5
:1007B0004D07ED0E02FA05F3CD105DB1456A4E0707
:1007C000F70E0F26BE40B5434562456A45EA03046D
:1007D00044620AE0056A4E07F70E0F26BE40B54395
:1007E0000562056A45EA03040462F0BD00F082F880
:1007F000FFF730FEFFF75CFF354800683549B0FB76
:10080000F1F0401E34490880012240F2992133481A
:1008100000F054F90021314800F071F900212F480F
:1008200000F068F92E4800F065FA06202C4908709F
:1008300000204870C870012048710A4600212748EE
:1008400000F088F9274802880021244800F03EF98A
:1008500001220021214800F05CF9214A02211F48B1
:1008600000F078F92048028802211C4800F02EF997
:1008700001220221194800F04CF9194A04211748B5
:1008800000F068F9194802880421144800F01EF9A4
:1008900001220421114800F03CF9114A06210F48B9
:1008A00000F058F91248028806210C4800F00EF9B1
:1008B00001220621094800F02CF90121074800F027
:1008C00022FA0121054800F01FF900BFFEE70000F1
:1008D0001400002000366E011000002000040040CB
:1008E00000000020080000200A0000200C0000206A
:1008F0000E00002010B540F253101A490860FFF7AF
:1009000093FE01210846FFF775FD00BFFFF7CEFDFE
:100910000028FBD00D210120FFF702FE012102205B
:10092000FFF768FD00BF1920FFF7A8FD0128FAD1E5
:100930000020FFF72DFD0020FFF73EFD0020FFF710
:1009400031FD0120FFF742FD0220FFF79FFE00BFAF
:10095000FFF7A6FE0228FBD10020FFF737FD00F0CD
:1009600003F810BD002002402DE9FF5F00240025A0
:100970000026A146A246A3460020039002900190C3
:10098000FFF78EFE0090009820B1012814D00228B5
:1009900074D115E04348406DC0F3402040B1414858
:1009A000006BC0F3406018B13F484049086002E066
:1009B0003F483E49086065E03D483C49086061E0C9
:1009C00038484068C0F300463648C06AC00F20BBB4
:1009D00034484068C0F3834432484068C0F34175EE
:1009E0000DB90F2C03D12801401C044400E0A41CC5
:1009F00026B9304860432D4908603DE029484068E9
:100A0000C0F3404020B12B4860432849086033E0E0
:100A100027486043254908602EE02248C06AC0F399
:100A2000031003901F48C06AC0F3082002901D48BD
:100A3000C06A00F00700019016B9DFF878B009E04D
:100A400018484068C0F3404010B1DFF868B001E0DA
:100A5000DFF85CB00121019801FA00F0039900FB76
:100A600001FC0298ABFB0070014662460023384649
:100A7000FFF79BFB0D49086004E0FFE70C480B49BA
:100A8000086000BF00BF07484068C0F303190A4868
:100A900010F809A00548006820FA0AF00349086028
:100AA000BDE8FF9F00100240006CDC021400002033
:100AB00000127A0000093D00100D0008C162826238
:100AC000436923F001035B1C436170470B4633B15C
:100AD000022B06D0042B06D0062B08D105E042637A
:100AE00006E0826304E0C26302E0026400E000BF4B
:100AF00000BF7047026861F3092202607047026814
:100B000061F3061202607047026861F3000202603E
:100B1000704710B50B4633B1022B09D0042B0CD013
:100B2000062B14D10EE0846962F3C30484610FE0E4
:100B3000846962F3CB2484610AE0C46962F3C3046C
:100B4000C46105E0C46962F3CB24C46100E000BF66
:100B500000BF10BD2DE9F04100250026002701F15E
:100B600008035C1C92F801C00CFA03FC1FFA8CF518
:100B700092F802C00CFA04FC1FFA8CF6D0F804C0FC
:100B80004FF0010808FA04F82CEA080CC0F804C079
:100B9000D0F804C04CEA060CC0F804C0D0F804C079
:100BA0004FF0010808FA03F82CEA080CC0F804C05A
:100BB000D0F804C04CEA050CC0F804C00F4637B1A9
:100BC000022F0DD0042F14D0062F24D11AE092F852
:100BD0000080D0F818C068F3061CC0F818C01BE0ED
:100BE00092F80080D0F818C068F30E3CC0F818C026
:100BF00012E092F80080D0F81CC068F3061CC0F820
:100C00001CC009E092F80080D0F81CC068F30E3CCC
:100C1000C0F81CC000E000BF00BF4FF0010C0CEB9F
:100C200041034FF0030C0CEB410492F803C00CFAA3
:100C300003FC1FFA8CF592F804C00CFA04FC1FFAAE
:100C40008CF64FF0010808FA04F8D0F820C02CEA1E
:100C5000080CC0F820C0D0F820C04CEA060CC0F840
:100C600020C04FF0010C0CFA03FCD0F8208028EAD9
:100C70000C08C0F82080D0F820C04CEA050CC0F861
:100C800020C04B004FF0020C0CEB410492F805C061
:100C90004FEA41080CFA08FC1FFA8CF592F806C0DE
:100CA0004FF0020808EB41080CFA08FC1FFA8CF61A
:100CB0004FF0010808FA04F8D0F820C02CEA080C1C
:100CC000C0F820C0D0F820C04CEA060CC0F820C004
:100CD0004FF0010808FA03F8D0F820C02CEA080CFD
:100CE000C0F820C0D0F820C04CEA050CC0F820C0E5
:100CF000BDE8F0810021017041708170C170017107
:100D0000417181717047026861F3C71202607047D8
:100D100000000000000000000102030406070809AB
:100D2000400D000800000020180000000801000825
:100D3000580D00081800002060060000240100087B
:100D400000000000000000004D01F900A600530063
:080D50000000000000127A000F
:04000005080000CD22
:00000001FF
